:020000040800F2
:1000000000300020C5150008090400080B04000892
:1000100000000000000000000000000000000000E0
:100020000000000000000000000000000D040008B7
:1000300000000000000000000F0400081104000888
:100040001516000800000000151600081516000817
:1000500015160008151600081516000819040008E2
:1000600000000000151600081516000815160008F7
:1000700015160008151600081516000800000000E7
:10008000151600080000000000000000151600080A
:1000900000000000151600081516000815160008C7
:1000A00000000000151600080000000015160008EA
:1000B000151600080000000000000000000000000D
:1000C00010B5064C2378002B07D1054B002B02D02E
:1000D000044800E000BF0123237010BD0C00002085
:1000E0000000000070160008044B10B5002B03D070
:1000F0000349044800E000BF10BDC04600000000F6
:1001000010000020701600080023C25C0133002A92
:10011000FBD1581E70470000002243088B4274D365
:1001200003098B425FD3030A8B4244D3030B8B42F8
:1001300028D3030C8B420DD3FF22090212BA030C01
:100140008B4202D31212090265D0030B8B4219D3E2
:1001500000E0090AC30B8B4201D3CB03C01A524102
:10016000830B8B4201D38B03C01A5241430B8B424A
:1001700001D34B03C01A5241030B8B4201D30B0333
:10018000C01A5241C30A8B4201D3CB02C01A52415A
:10019000830A8B4201D38B02C01A5241430A8B421D
:1001A00001D34B02C01A5241030A8B4201D30B0206
:1001B000C01A5241CDD2C3098B4201D3CB01C01A20
:1001C000524183098B4201D38B01C01A524143092A
:1001D0008B4201D34B01C01A524103098B4201D318
:1001E0000B01C01A5241C3088B4201D3CB00C01A85
:1001F000524183088B4201D38B00C01A52414308FD
:100200008B4201D34B00C01A5241411A00D2014621
:10021000524110467047FFE701B5002000F006F894
:1002200002BDC0460029F7D076E770477047C04648
:10023000F0B58BB01422002105A801F0ECF9234B96
:10024000596B042211435963596B0A400192019A78
:100250005A6B20252A435A635A6B2A400292029A0B
:100260005A6B012422435A635A6B22400392039A29
:10027000596B0222114359635B6B1A400492049B31
:10028000A026F60501222021300000F0FBFD80238E
:100290009B0105930E4B06930027079705A90D4870
:1002A00000F012FD0595069407970323089305A90E
:1002B000300000F009FD00220021072000F0D4F9F1
:1002C000072000F0D5F90BB0F0BDC0460010024089
:1002D000000011100008005072B6FEE710B5124879
:1002E000124B0360124B4360002383600122C26003
:1002F000036143618361C361036200F0E3FD002891
:100300000CD10948002100F043FE002808D106481E
:10031000002100F069FE002804D110BDFFF7DCFFCA
:10032000FFF7DAFFFFF7D8FFB800002000540040C5
:100330005D3E302010B50C480C4B0360E1235B029E
:10034000436000238360C36003610C2242618361C8
:10035000C36103624362836201F0F4F8002800D1B4
:1003600010BDFFF7B9FFC046280000200044004040
:1003700000B58DB01C22002105A801F04CF9142213
:100380000021684601F047F902230593FE330893E4
:10039000C03B0A9305A800F07BF900280ED1072383
:1003A0000093002301930293039304930121684671
:1003B00000F00EFB002803D10DB000BDFFF78CFF4D
:1003C000FFF78AFF30B585B000F0E4F8FFF7D0FF03
:1003D000FFF72EFFFFF782FFFFF7ACFF6C46084BDD
:1003E000220023CB23C21B6813602000FFF78CFE82
:1003F000012382B203485B42210000F0E3FFFEE7E5
:100400008816000828000020FEE7FEE770477047C6
:1004100010B500F0CBF810BD10B58020800100F0C1
:1004200039FD10BD82B00A4B196C012211431964C9
:10043000196C0A400092009ADA6B802149050A4340
:10044000DA63DB6B0B400193019B02B07047C0463F
:100450000010024010B58EB004001422002109A83B
:1004600001F0D9F81C22002102A801F0D4F822687A
:10047000174B9A4201D00EB010BD4023029302A840
:1004800000F088FB002820D1124C626B02231A4333
:100490006263626B13400093009BC0239B0009932F
:1004A00012230A9300230B930C9306330D9309A98F
:1004B000094800F009FCE36B802292031343E363D5
:1004C000E36B13400193019BD5E7FFF705FFDBE7E3
:1004D00000540040001002400004005010B588B0E5
:1004E00004001422002103A801F095F82268114BA2
:1004F0009A4201D008B010BD0F4BDA6B80218902FF
:100500000A43DA63DA6B0A400192019A596B0122BD
:10051000114359635B6B13400293029B0C230393BB
:100520000A3B04930792A02003A9C00500F0CCFB6E
:10053000E0E7C046004400400010024010B504004F
:10054000114B1968002901D1012010BDFA2080004B
:10055000FFF7E2FD01000D4B1868FFF7DDFD00F02D
:1005600093F800280DD1032C01D90120EDE70130CB
:1005700000222100404200F077F8054B1C6000206B
:10058000E3E70120E1E7C04600000020080000206A
:100590000400002010B50320FFF7D0FF041E02D096
:1005A0000124200010BDFFF73DFFFAE7034A13685E
:1005B000034909685B1813607047C04604010020B6
:1005C00000000020014B18687047C046040100205D
:1005D00070B5002811DB8308134DC0339B005C59B4
:1005E00003221040C000FC3216008640B44389014B
:1005F0000A40824022435A5170BD0F230340083BFA
:100600009B0806339B00094A944663445C680322B6
:100610001040C000FC3215008540AC4389010A40FF
:10062000824022435A60E7E700E100E000ED00E08D
:10063000013880235B0498420FD2094A5060094870
:10064000036A1B021B0AC02109060B430362002335
:10065000936007331360002070470120FCE7C04619
:1006600010E000E000ED00E010B5FFF7B1FF10BDB5
:10067000002805DB1F22024001239340014A13603A
:100680007047C04600E100E010B5FFF7D1FF10BD94
:1006900070B5041E00D149E10368DB0730D5AB4BD0
:1006A0009A6838231340082B22D0436880225202D4
:1006B000934272D0A022D202934275D0A34B1A6803
:1006C000A3490A401A601A68A2490A401A6063687E
:1006D000002B75D0FFF776FF05009C4B1B689B0332
:1006E0000ED4FFF76FFF401B6428F6D9032028E1E2
:1006F000964B1B689B0303D54368002B00D117E181
:1007000023689B0729D5914B9B6838221A4265D1F3
:100710008E4B1B685B0503D5E368002B00D109E114
:100720008A4B5A688C490A40616909020A435A6037
:100730001A688A490A4021690A431A601B68DB0A61
:1007400007221A40864BD340864A1360864B1868AE
:10075000FFF7F4FE002800D0EEE023681B077DD5EC
:100760007A4B9A6838231340182B70D0A369002B5A
:1007700000D19CE0754A136E01210B431366FFF70D
:1007800021FF0500714B1B6E9B0767D4FFF71AFF13
:10079000401B0228F6D90320D3E06C4A116880235D
:1007A0005B020B43136092E7684B19688022D20208
:1007B0000A431A601968802252020A431A6086E7C7
:1007C000FFF700FF0500614B1B689B0398D5FFF7FF
:1007D000F9FE401B6428F6D90320B2E0E368002B41
:1007E00022D05A4A13685D490B4021690B431360BC
:1007F000116880235B000B431360FFF7E3FE0500E5
:10080000524B1B685B0506D4FFF7DCFE401B022839
:10081000F6D9032095E04D494B684F4A1340626971
:10082000120213434B6098E7484A13684F490B4044
:100830001360FFF7C7FE0500444B1B685B058CD5B2
:10084000FFF7C0FE401B0228F6D9032079E03F4B9A
:100850001B6E9B0702D5A369002B6FD023685B0733
:100860006ED53A4B9A6838231340202B32D0A368B8
:10087000012B38D0052B3CD0344BDA6D01218A4353
:10088000DA65DA6D03318A43DA65A368002B3CD060
:10089000FFF798FE04002D4BDB6D9B0733D4FFF769
:1008A00091FE001B324B9842F5D9032049E0274ABC
:1008B000136E01218B431366FFF784FE0500234B63
:1008C0001B6E9B07CAD5FFF77DFE401B0228F6D999
:1008D000032036E01D4BDB6D9B0733D5A368002B4F
:1008E00032D000202DE0194AD36D01210B43D3658E
:1008F000CBE7164BDA6D04210A43DA65DA6D03396A
:100900000A43DA65C1E700201BE0FFF75BFE040045
:100910000E4BDB6D9B0707D5FFF754FE001B144BF6
:100920009842F5D903200CE000200AE0012008E0FD
:10093000012006E0012004E0012002E0012000E0A7
:10094000002070BD0020FCE70120FAE70010024003
:10095000FFFFFEFFFFFFFBFFFF80FFFFFFC7FFFF63
:10096000006CDC020800002004000020FFFEFFFFF6
:1009700088130000144B9B6838221A4207D1124B8F
:100980001A68D20A072313401048D84070470E4B0C
:100990009A6838231340082B10D00B4B9A683823E1
:1009A0001340202B0CD0084B9A6838231340182B87
:1009B00001D00020EAE7FA20C001E7E70348E5E7B5
:1009C00080200002E2E7C04600100240006CDC021A
:1009D00070B504000D00002800D1AAE0574B1A683A
:1009E000072313408B4228D323689A0710D55B074F
:1009F00007D553498A68534B1A40B0231B01134350
:100A00008B604F4A936850490B40E1680B439360F9
:100A10002368DB0752D54A4A13681C218B43A1681F
:100A20000B4313606368012B1ED0002B38D1444A5E
:100A3000126852051BD4012063E0404A1368072165
:100A40008B432B431360FFF7BDFD06003B4B1A6839
:100A500007231340AB42C7D0FFF7B4FD801B3B4ACE
:100A60009042F3D903204CE01268920363D53449D5
:100A70008A680720824313438B60FFF7A3FD0600BB
:100A80002F4B9B6838221A406368DB009A4215D0CE
:100A9000FFF798FD801B2D4B9842F1D9032030E0E1
:100AA000032B05D0264AD26D9207E0D4012028E01E
:100AB000234A126E9207DAD4012022E01F4B1A68F3
:100AC00007231340AB421DD823685B0706D51C4A99
:100AD00093681F490B4021690B439360FFF74AFF5E
:100AE000174B9A68120A0F2313401A4A9B009A5810
:100AF0001F231340D840184B1860184B1868FFF795
:100B00001DFD70BD0D4A136807218B432B431360F5
:100B1000FFF758FD0600094B1A6807231340AB4244
:100B2000D2D0FFF74FFD801B084B9842F3D903202A
:100B3000E7E70120E5E70120E3E7C04600200240A7
:100B400000100240FF84FFFFFFF0FFFF881300004A
:100B5000FF8FFFFFD01600080800002004000020CF
:100B6000014B18687047C0460800002010B5FFF719
:100B7000F7FF064B9A68120B07231340044A9B00A9
:100B80009A581F231340D84010BDC04600100240A1
:100B9000B016000870B582B0040003689B034ED500
:100BA000424BDB6BDB0035D4404BDA6B80214905CF
:100BB0000A43DA63DB6B0B400193019B01253B4B3E
:100BC000D96DC02292000B001340114210D0A269CF
:100BD0009A420DD0354AD36D35490B40D06D8021F6
:100BE00049020143D165D16D32480140D165D365D9
:100BF000DB0711D42D4AD36D2D490B40A1690B435E
:100C0000D3650020012D1BD1284AD36B2A490B4004
:100C1000D36315E00025D2E7FFF7D4FC0600234B91
:100C2000DB6D9B0707D4FFF7CDFC801B234B98425D
:100C3000F5D9032000E000200028E3D1DAE7002006
:100C40002368DB0706D5194A536D03218B43A1683E
:100C50000B43536523685B0606D5144A536D184948
:100C60000B40E1680B43536523685B0406D50F4ACC
:100C7000536D9B009B0861690B43536523681B05FB
:100C800006D50A4A536D0F490B4021690B43536542
:100C90002368002B01DB02B070BD044A1368E02119
:100CA0008B4361680B431360F5E7C04600100240B8
:100CB000FFFCFFFFFFFFFEFFFFFFFFEF88130000B9
:100CC000FFCFFFFFFF3FFFFFF0B5D6464F4646463A
:100CD000C0B500233BE0042500E00025A5402C0022
:100CE0003C43634D1832920054518022AF584A461B
:100CF000D2433D004C46A5434C68E40302D53D0079
:100D00004C4625435A4C8027E551842567593D00C0
:100D100015404C68A40302D53D004C462543544C75
:100D20008427E55127683D0015404C68E40202D550
:100D30003D004C4625434E4C256065682A404C6872
:100D4000A40201D54A462A43494C626001330C682B
:100D50002200DA4000D186E001229A4026001640A7
:100D6000B1461442F2D04C68022C01D0122C18D19A
:100D7000DD080835AD002C58A44607271F40BF00EA
:100D80000F24A2462600BE40B04666464446A6430F
:100D9000B4460C69564626403400BC40664634438F
:100DA0002C500468A4465D000324A2462700AF40EF
:100DB000B846FF4366464446A643B4464C6856468A
:100DC00026403400AC406646344304604C68661EDE
:100DD000012E03D9112C01D0122C12D184683C4071
:100DE000A446CC68AC40664634438460446894436F
:100DF0004A68120994460122664632409A402243CC
:100E000042604A68032A05D0C4683C408A68AA4008
:100E10002243C2604A68D20098D59A081400183458
:100E2000A400134D675903241C40E4000F25A5407E
:100E3000AF43A025ED05A84200D14EE70D4DA842D5
:100E40000BD00D4DA8420AD00C4DA84209D00C4D34
:100E5000A84200D13FE7052540E701253EE70225EE
:100E60003CE703253AE7E0BCBA46B146A846F0BDE8
:100E7000001802400004005000080050000C005010
:100E800000140050002A01D0816170478162FCE7A4
:100E90007047704710B50400094BDB68184204D155
:100EA000074B1B69234205D110BD054BD860FFF7E6
:100EB000EFFFF5E7024B1C612000FFF7EAFFF3E7C5
:100EC0000018024010B5041E59D04123C35C002B0A
:100ED00043D041232422E2542268136801218B432A
:100EE00013606368226827490B4013612268936886
:100EF00025490B409360E368012B34D0A168226838
:100F000084231B020B439360E368022B32D02268D8
:100F100051681E4B0B4353602268D3681A490B403B
:100F2000D360236962691343A269120221681343E3
:100F3000CB60E369216A22680B431360226813685F
:100F400001210B4313600023636441221F31A1542C
:100F500023630132A354002010BD40330022C25449
:100F6000FFF778FAB5E7A168226880231B020B43DC
:100F70009360C9E72368802212015A60C7E7012005
:100F8000EAE7C046FFFFFFF0FF7FFFFF008000029F
:100F9000F0B54123C35C202B20D12033C35C012B4F
:100FA0001ED04024012202554125242343550668C2
:100FB000336893433360066833680A4F3B403360BD
:100FC000066833680B43336001680B6813430B609A
:100FD00020234355002303550020F0BD0220FCE7E9
:100FE0000220FAE7FFEFFFFFF0B54123C35C202B9F
:100FF0001ED12033C35C012B1CD04024012202559A
:1010000041252423435506683368934333600668BB
:101010003368094F3B4009021943316001680B688E
:1010200013430B6020234355002303550020F0BDDC
:101030000220FCE70220FAE7FFF0FFFF10B50400F2
:1010400083680269134342691343C2691343016809
:101050000A686248024013430B6022685368604983
:101060000B40E1680B435360A369226A1A4321686D
:101070008B685C48034013438B602268D36A0F215E
:101080008B43616A0B43D3622368574A93421BD058
:10109000564A934229D01023E069802212029042DE
:1010A0002DD0042B00D192E067D8002B00D188E02E
:1010B000022B60D14E4B1B685B090721194001319F
:1010C0004C48FFF729F85CE0494B5A6D0323134065
:1010D000022B0CD005D8002B0BD0012B0BD10333E6
:1010E000DAE7032B09D10533D6E70023D4E702233F
:1010F000D2E70023D0E71023CEE71023CCE7042B60
:1011000036D00FD8002B2DD0022B09D1384B1B68BD
:101110005B090721194001313648FEF7FDFF03E066
:10112000012045E0082B1BD1626A334B5200D15A93
:10113000FEF7F2FF400061684B08C018FEF7ECFFB5
:101140000200103A2D4B9A4244D882B20F239A43A0
:101150004008083B034013432268D360002027E087
:10116000012025E0FFF702FD0028DDD100201FE06F
:10117000FFF700FCF8E701201AE0082B17D18020C8
:101180000002626A1C4B5200D15AFEF7C5FF61682B
:101190004B08C018FEF7C0FF0200103A174B9A42E6
:1011A0001AD823680004000CD860002000E0012059
:1011B00001236A22A352023AA352002323676367E2
:1011C00010BDFFF7D3FC0028DBD10020F0E7FFF7CC
:1011D000D1FBF8E70120EBE70120E9E7F369FFCF56
:1011E000FFCFFFFFFFF4FF11003801400044004033
:1011F00000100240006CDC0298160008EFFF0000AF
:10120000836ADB0706D5026853682C490B40C16A24
:101210000B435360836A9B0706D5026853682849CD
:101220000B40016B0B435360836A5B0706D5026872
:10123000536824490B40416B0B435360836A1B077F
:1012400006D50268536820490B40816B0B435360FD
:10125000836ADB0606D5026893681C490B40C16BA4
:101260000B439360836A9B0606D50268936818490E
:101270000B40016C0B439360836A5B060BD50268DD
:10128000536814490B40416C0B435360426C8023FC
:101290005B039A420AD0836A1B0606D5026853682C
:1012A0000D490B40C16C0B43536070470268536893
:1012B0000A490B40816C0B435360ECE7FFFFFDFFD5
:1012C000FFFFFEFFFFFFFBFFFF7FFFFFFFEFFFFFC3
:1012D000FFDFFFFFFFFFEFFFFFFFF7FFFFFF9FFFB6
:1012E000F8B5CE46474680B506000D001700994672
:1012F000089B98463368DC692C40641B63425C4160
:10130000BC4257D143460133F4D0FFF75BF94B465B
:10131000C01A40452ED84346002B2BD032681368A4
:101320005B07E7D5D3691B05E4D580231B01136256
:10133000EFF31080012282F3108831680B68204C93
:1013400023400B6080F31088EFF3108082F3108845
:1013500031688B6893438B6080F31088202383323D
:10136000B3500432B3500432B35060330022F2540D
:10137000032020E0EFF31080012282F3108831680F
:101380000B680F4C23400B6080F31088EFF3108044
:1013900082F3108831688B6893438B6080F31088E8
:1013A00020238332B3500432B35060330022F2540E
:1013B000032000E00020C0BCB946B046F8BDC046DE
:1013C0005FFEFFFFF0B5C64600B582B004000D0019
:1013D00090461E008423C358202B6AD1002900D1D7
:1013E0006CE0002A00D16BE0826880235B019A42A6
:1013F0001FD08023E35C012B64D080230122E254C0
:101400000C330022E250083B2132E250FFF7DAF8B9
:10141000070054234246E2520233E252A26880237C
:101420005B019A420CD00023984680230022E254AC
:101430001DE00369002BDCD1CB07DAD5012039E0B0
:101440002369002B02D000239846EEE7A84600252A
:10145000EBE743461B882268DB05DB0D9362022322
:101460009C46E0445623E25A013A92B2E252562395
:10147000E35A9BB2002B0FD000963B000022802144
:101480002000FFF72DFF00281ED1002DE1D02A7883
:1014900023689A620135E5E700963B00002240216F
:1014A0002000FFF71DFF002810D184232022E250E6
:1014B00000E0022002B080BCB846F0BD0120F9E790
:1014C0000120F7E70220F5E70320F3E70320F1E727
:1014D00030B583B004008C230022C250FFF772F8AD
:1014E000050023681B681B070FD423681B685B0774
:1014F00018D420238422A3500432A3500023E3668F
:10150000083AA354002003B030BD80210C4B009357
:101510000300002289032000FFF7E2FE0028E4D048
:101520000320F0E78021064B00932B000022C90323
:101530002000FFF7D5FE0028DBD00320E3E7C046FC
:10154000FFFFFF0110B5041E30D08423C358002BC9
:1015500022D084232422E2502268136801218B4385
:1015600013602000FFF76AFD012814D0A36A002B46
:1015700018D1226853680E490B4053602268936863
:101580002A218B4393602268136829390B43136027
:101590002000FFF79DFF10BD80330022C254FEF7EC
:1015A0009DFFD6E72000FFF72BFEE2E70120F2E7E0
:1015B000FFB7FFFF024B802212059A607047C046BA
:1015C00000ED00E00D488546002103E00C4B5B5820
:1015D000435004310B480C4B42189A42F6D30B4A45
:1015E00002E0002313600432094B9A42F9D3FFF75B
:1015F000E1FF00F019F8FEF7E5FEFEE700300020FD
:1016000018170008000000200C0000200C0000202B
:1016100008010020FEE703008218934200D17047C2
:1016200019700133F9E7000070B500260C4C0D4D20
:10163000641BA410A64209D1002600F019F80A4C38
:101640000A4D641BA410A64205D170BDB300EB582F
:1016500098470136EEE7B300EB5898470136F2E7BA
:1016600010170008101700081417000810170008BA
:10167000F8B5C046F8BC08BC9E467047F8B5C046F1
:08168000F8BC08BC9E4670474F
:1016880048656C6C6F2C20576F6B7769210D0A00C9
:10169800010002000400060008000A000C00100007
:1016A8002000400080000001000000000000000051
:1016B800000000000000000001000000020000001F
:1016C800030000000400000000000000000000000B
:1016D8000000000000000000000000000000000002
:1016E80000000000000000000100000002000000EF
:1016F80003000000040000000600000007000000CE
:081708000800000009000000C8
:04171000E9000008E4
:04171400C100000808
:0C1718000100000004000000006CDC0276
:04000005080015C515
:00000001FF
