:020000040800F2
:1000000000300020712100081D0700081F070008AC
:1000100000000000000000000000000000000000E0
:1000200000000000000000000000000021070008A0
:10003000000000000000000023070008250700085A
:10004000C121000800000000C1210008C1210008F2
:10005000C1210008C1210008C12100082D070008A6
:1000600000000000C1210008C1210008C1210008D2
:10007000C1210008C1210008C121000800000000C2
:10008000C12100080000000000000000C12100089C
:1000900000000000C1210008C1210008C1210008A2
:1000A00000000000C121000800000000C12100087C
:1000B000C121000800000000000000000000000056
:1000C00010B5064C2378002B07D1054B002B02D02E
:1000D000044800E000BF0123237010BD6000002031
:1000E000000000003C2B0008044B10B5002B03D08F
:1000F0000349044800E000BF10BDC04600000000F6
:10010000640000203C2B00080023C25C0133002A5D
:10011000FBD1581E7047000003B4714649084000E7
:100120004900095E49008E4403BC70470022430821
:100130008B4274D303098B425FD3030A8B4244D3AF
:10014000030B8B4228D3030C8B420DD3FF220902F1
:1001500012BA030C8B4202D31212090265D0030BB0
:100160008B4219D300E0090AC30B8B4201D3CB03A6
:10017000C01A5241830B8B4201D38B03C01A5241E8
:10018000430B8B4201D34B03C01A5241030B8B42EA
:1001900001D30B03C01A5241C30A8B4201D3CB02D5
:1001A000C01A5241830A8B4201D38B02C01A5241BA
:1001B000430A8B4201D34B02C01A5241030A8B42BD
:1001C00001D30B02C01A5241CDD2C3098B4201D3D5
:1001D000CB01C01A524183098B4201D38B01C01A53
:1001E000524143098B4201D34B01C01A52410309CA
:1001F0008B4201D30B01C01A5241C3088B4201D379
:10020000CB00C01A524183088B4201D38B00C01A25
:10021000524143088B4201D34B00C01A5241411A4C
:1002200000D20146524110467047FFE701B5002059
:1002300000F0F0F802BDC0460029F7D076E770471D
:1002400003460B437FD4002243088B4274D3030937
:100250008B425FD3030A8B4244D3030B8B4228D3D8
:10026000030C8B420DD3FF22090212BA030C8B42FE
:1002700002D31212090265D0030B8B4219D300E09E
:10028000090AC30B8B4201D3CB03C01A5241830B23
:100290008B4201D38B03C01A5241430B8B4201D3D3
:1002A0004B03C01A5241030B8B4201D30B03C01AFC
:1002B0005241C30A8B4201D3CB02C01A5241830A76
:1002C0008B4201D38B02C01A5241430A8B4201D3A5
:1002D0004B02C01A5241030A8B4201D30B02C01ACF
:1002E0005241CDD2C3098B4201D3CB01C01A524136
:1002F00083098B4201D38B01C01A524143098B42BF
:1003000001D34B01C01A524103098B4201D30B01A7
:10031000C01A5241C3088B4201D3CB00C01A5241CC
:1003200083088B4201D38B00C01A524143088B4291
:1003300001D34B00C01A5241411A00D2014652412A
:10034000104670475DE0CA0F00D04942031000D349
:100350004042534000229C4603098B422DD3030A9E
:100360008B4212D3FC22890112BA030A8B420CD3AE
:10037000890192118B4208D3890192118B4204D3D7
:1003800089013AD0921100E08909C3098B4201D357
:10039000CB01C01A524183098B4201D38B01C01A91
:1003A000524143098B4201D34B01C01A5241030908
:1003B0008B4201D30B01C01A5241C3088B4201D3B7
:1003C000CB00C01A524183088B4201D38B00C01A64
:1003D0005241D9D243088B4201D34B00C01A52413B
:1003E000411A00D20146634652415B10104601D3C8
:1003F0004042002B00D54942704763465B1000D352
:10040000404201B5002000F005F802BD0029F8D0F7
:1004100016E770477047C04670B58AB014220021B5
:1004200005A801F003FF234B596B042211435963C4
:10043000596B0A400192019A596B2022114359636A
:10044000596B0A400292029A5A6B01252A435A6359
:100450005A6B2A400392039A596B02221143596343
:100460005B6B1A400492049BA026F60500226021D3
:10047000300000F08FFE80239B0105930E4B069306
:100480000024079405A90D4800F0A6FD60230593FC
:1004900006950794089405A9300000F09DFD002200
:1004A0000021072000F07CFA072000F07DFA0AB056
:1004B00070BDC0460010024000001110000800503E
:1004C00072B6FEE710B51248124B0360124B436040
:1004D000002383600122C260036143618361C361C1
:1004E000036200F0C7FF00280CD10948002101F089
:1004F000C1F9002808D10648002101F0E7F90028D9
:1005000004D110BDFFF7DCFFFFF7DAFFFFF7D8FFDC
:1005100010010020005400405D3E302010B50C4812
:100520000C4B0360E1235B02436000238360C360E4
:1005300003610C2242618361C3610362436283628F
:1005400001F0A6FC002800D110BDFFF7B9FFC0469E
:100550007C0000200044004000B58DB01C2200212A
:1005600005A801F063FE14220021684601F05EFE3A
:1005700002230593FE330893C03B0A9305A800F0BD
:1005800023FA00280ED1072300930023019302933E
:10059000039304930121684600F0A2FB002803D1D5
:1005A0000DB000BDFFF78CFFFFF78AFFF0B5C64620
:1005B00000B584B000F078F9FFF7CEFFFFF72CFF0D
:1005C000FFF780FFFFF7AAFF494C2223236001F0C9
:1005D0009FFC01F03BFD2723236001F037FD01ACB8
:1005E000444B220003CB03C21B7813702000FFF79B
:1005F0008BFD012382B240485B42210001F05FFB8A
:100600003B4D27232B600221002001F037FD3B48A2
:1006100001F02AFD0021012001F030FD384B984601
:10062000180001F021FDFA24A400200000F05AF97E
:1006300001F031FD0021002001F020FD314801F0E2
:1006400013FD200000F04EF901F025FD2E4F2F483C
:100650003B003C22522101F027FD200000F042F92E
:1006600001F019FDA026F6054021300000F098FDAC
:10067000200000F037F94021300000F091FD2021EA
:10068000300000F08DFD200000F02CF9202130001A
:1006900000F086FD22232B600221002001F0EEFCF9
:1006A0001B4801F0E1FC0021012001F0E7FC40467D
:1006B00001F0DAFC200000F015F901F0ECFC00215B
:1006C000002001F0DBFC134801F0CEFC200000F01C
:1006D00009F901F0E0FC10483B0032224C2101F006
:1006E000E3FC200000F0FEF801F0D5FC88E7C046EE
:1006F00000000020142C00087C000020542B00086F
:10070000642B0008742B000810270000842B0008BD
:10071000BC2B0008CC2B0008DC2B0008FEE7FEE712
:100720007047704710B500F0CBF810BD10B58020B1
:10073000800100F03FFD10BD82B00A4B196C012210
:1007400011431964196C0A400092009ADA6B8021F7
:1007500049050A43DA63DB6B0B400193019B02B04E
:100760007047C0460010024010B58EB0040014223D
:10077000002109A801F05AFD1C22002102A801F065
:1007800055FD2268174B9A4201D00EB010BD402390
:10079000029302A800F086FB002820D1124C626B65
:1007A00002231A436263626B13400093009BC023D1
:1007B0009B00099312230A9300230B930C93063397
:1007C0000D9309A9094800F007FCE36B802292030E
:1007D0001343E363E36B13400193019BD5E7FFF7FA
:1007E0006FFEDBE7005400400010024000040050A0
:1007F00010B588B004001422002103A801F016FDF2
:100800002268114B9A4201D008B010BD0F4BDA6B31
:10081000802189020A43DA63DA6B0A400192019A65
:10082000596B0122114359635B6B13400293029B86
:100830000C2303930A3B04930792A02003A9C0054D
:1008400000F0CAFBE0E7C046004400400010024050
:1008500010B50400114B1978002901D1012010BDF9
:10086000FA208000FFF762FC01000D4B1868FFF7CB
:100870005DFC00F0A5F800280DD1032C01D9012062
:10088000EDE7013000222100404200F089F8054BDD
:100890001C600020E3E70120E1E7C04604000020DF
:1008A0000C0000200800002010B50320FFF7D0FF47
:1008B000041E02D00124200010BDFFF73DFFFAE71F
:1008C000034B1B78034A11685B1813607047C046DE
:1008D0000400002064010020014B18687047C046E6
:1008E0006401002070B50400FFF7F6FF0500631CEB
:1008F00002D0044B1B78E418FFF7EEFF401BA04228
:10090000FAD370BD0400002070B5002811DB830805
:10091000134DC0339B005C5903221040C000FC32D1
:1009200016008640B44389010A40824022435A514E
:1009300070BD0F230340083B9B0806339B00094A08
:10094000944663445C6803221040C000FC321500EA
:100950008540AC4389010A40824022435A60E7E760
:1009600000E100E000ED00E0013880235B049842E4
:100970000FD2094A50600948036A1B021B0AC021B2
:1009800009060B43036200239360073313600020C2
:1009900070470120FCE7C04610E000E000ED00E0F9
:1009A00010B5FFF7B1FF10BD002805DB1F22024084
:1009B00001239340014A13607047C04600E100E004
:1009C00010B5FFF7D1FF10BD70B5041E00D139E19D
:1009D0000368DB072CD5A14B9A6838231340082BFA
:1009E00022D043688022520293422ED0A022D2020B
:1009F000934231D0994B1A6899490A401A601A6893
:100A000098490A401A606368002B31D0FFF764FFF1
:100A10000500924B1B689B030AD4FFF75DFF401B48
:100A20006428F6D903200EE14368002B00D10BE1C6
:100A300023689B0747D5894B9B6838221A4261D1AE
:100A4000E368002B22D10120FDE0844A1168802355
:100A50005B020B431360D6E7804B19688022D202F9
:100A60000A431A601968802252020A431A60CAE7D0
:100A7000FFF732FF0500794B1B689B03D8D5FFF7C2
:100A80002BFF401B6428F6D90320DCE0734B5A6827
:100A900075490A40616909020A435A601A68734934
:100AA0000A4021690A431A601B68DB0A07221A40C0
:100AB0006F4BD3406F4A13606F4B1868FFF7C8FE47
:100AC000002800D0C2E023681B0757D5634B9A6803
:100AD00038231340182B4ED0A369002B77D05F4AE0
:100AE000136E01210B431366FFF7F6FE05005B4B07
:100AF0001B6E9B0742D4FFF7EFFE401B0228F6D97E
:100B00000320A0E0E368002B22D0544A1368574921
:100B10000B4021690B431360116880235B000B437A
:100B20001360FFF7D9FE05004C4B1B685B0506D42C
:100B3000FFF7D2FE401B0228F6D9032083E0474985
:100B40004B68494A13406269120213434B60BAE78B
:100B5000424A136849490B401360FFF7BDFE050088
:100B60003E4B1B685B05AED5FFF7B6FE401B022867
:100B7000F6D9032067E0A369002B69D023685B07DF
:100B800068D5364B9A6838231340202B32D0A3689F
:100B9000012B34D0052B38D0304BDA6D01218A433C
:100BA000DA65DA6D03318A43DA65A368002B38D041
:100BB000FFF792FE0400294BDB6D9B072FD4FFF754
:100BC0008BFE001B2E4B9842F5D903203BE0234AB5
:100BD000136E01218B431366FFF77EFE05001F4B4A
:100BE0001B6E9B07CAD5FFF777FE401B0228F6D97C
:100BF000032028E0A368002B2ED0002023E0174A12
:100C0000D36D01210B43D365CFE7144BDA6D04217B
:100C10000A43DA65DA6D03390A43DA65C5E700206D
:100C200011E0FFF759FE04000C4BDB6D9B0707D565
:100C3000FFF752FE001B124B9842F5D9032002E049
:100C4000002000E0012070BD0120FCE70120FAE750
:100C50000120F8E70020F6E70120F4E70010024049
:100C6000FFFFFEFFFFFFFBFFFF80FFFFFFC7FFFF50
:100C7000006CDC020C00002008000020FFFEFFFFDB
:100C800088130000144B9B6838221A4207D1124B7C
:100C90001A68D20A072313401048D84070470E4BF9
:100CA0009A6838231340082B10D00B4B9A683823CE
:100CB0001340202B0CD0084B9A6838231340182B74
:100CC00001D00020EAE7FA20C001E7E70348E5E7A2
:100CD00080200002E2E7C04600100240006CDC0207
:100CE00070B504000D00002800D1AAE0574B1A6827
:100CF000072313408B4228D323689A0710D55B073C
:100D000007D553498A68534B1A40B0231B0113433C
:100D10008B604F4A936850490B40E1680B439360E6
:100D20002368DB0752D54A4A13681C218B43A1680C
:100D30000B4313606368012B1ED0002B38D1444A4B
:100D4000126852051BD4012063E0404A1368072152
:100D50008B432B431360FFF7BFFD06003B4B1A6824
:100D600007231340AB42C7D0FFF7B6FD801B3B4AB9
:100D70009042F3D903204CE01268920363D53449C2
:100D80008A680720824313438B60FFF7A5FD0600A6
:100D90002F4B9B6838221A406368DB009A4215D0BB
:100DA000FFF79AFD801B2D4B9842F1D9032030E0CC
:100DB000032B05D0264AD26D9207E0D4012028E00B
:100DC000234A126E9207DAD4012022E01F4B1A68E0
:100DD00007231340AB421DD823685B0706D51C4A86
:100DE00093681F490B4021690B439360FFF74AFF4B
:100DF000174B9A68120A0F2313401A4A9B009A58FD
:100E00001F231340D840184B1860184B1868FFF781
:100E10001FFD70BD0D4A136807218B432B431360E0
:100E2000FFF75AFD0600094B1A6807231340AB422F
:100E3000D2D0FFF751FD801B084B9842F3D9032015
:100E4000E7E70120E5E70120E3E7C0460020024094
:100E500000100240FF84FFFFFFF0FFFF8813000037
:100E6000FF8FFFFF582C00080C0000200800002016
:100E7000014B18687047C0460C00002010B5FFF702
:100E8000F7FF064B9A68120B07231340044A9B0096
:100E90009A581F231340D84010BDC046001002408E
:100EA000382C000870B582B0040003689B034ED54F
:100EB000424BDB6BDB0035D4404BDA6B80214905BC
:100EC0000A43DA63DB6B0B400193019B01253B4B2B
:100ED000D96DC02292000B001340114210D0A269BC
:100EE0009A420DD0354AD36D35490B40D06D8021E3
:100EF00049020143D165D16D32480140D165D365C6
:100F0000DB0711D42D4AD36D2D490B40A1690B434A
:100F1000D3650020012D1BD1284AD36B2A490B40F1
:100F2000D36315E00025D2E7FFF7D6FC0600234B7C
:100F3000DB6D9B0707D4FFF7CFFC801B234B984248
:100F4000F5D9032000E000200028E3D1DAE70020F3
:100F50002368DB0706D5194A536D03218B43A1682B
:100F60000B43536523685B0606D5144A536D184935
:100F70000B40E1680B43536523685B0406D50F4AB9
:100F8000536D9B009B0861690B43536523681B05E8
:100F900006D50A4A536D0F490B4021690B4353652F
:100FA0002368002B01DB02B070BD044A1368E02106
:100FB0008B4361680B431360F5E7C04600100240A5
:100FC000FFFCFFFFFFFFFEFFFFFFFFEF88130000A6
:100FD000FFCFFFFFFF3FFFFFF0B5D6464F46464627
:100FE000C0B500233BE0052500E00025A5402C000E
:100FF0003C43634D1832920054518022AF584A4608
:10100000D2433D004C46A5434C68E40302D53D0065
:101010004C4625435A4C8027E551842567593D00AD
:1010200015404C68A40302D53D004C462543544C62
:101030008427E55127683D0015404C68E40202D53D
:101040003D004C4625434E4C256065682A404C685F
:10105000A40201D54A462A43494C626001330C6818
:101060002200DA4000D186E001229A402600164094
:10107000B1461442F2D04C68022C01D0122C18D187
:10108000DD080835AD002C58A44607271F40BF00D7
:101090000F24A2462600BE40B04666464446A643FC
:1010A000B4460C69564626403400BC40664634437C
:1010B0002C500468A4465D000324A2462700AF40DC
:1010C000B846FF4366464446A643B4464C68564677
:1010D00026403400AC406646344304604C68661ECB
:1010E000012E03D9112C01D0122C12D184683C405E
:1010F000A446CC68AC40664634438460446894435C
:101100004A68120994460122664632409A402243B8
:1011100042604A68032A05D0C4683C408A68AA40F5
:101120002243C2604A68D20098D59A081400183445
:10113000A400134D675903241C40E4000F25A5406B
:10114000AF43A025ED05A84200D14EE70D4DA842C2
:101150000BD00D4DA8420AD00C4DA84209D00C4D21
:10116000A84200D13FE7062540E701253EE70225DA
:101170003CE703253AE7E0BCBA46B146A846F0BDD5
:10118000001802400004005000080050000C0050FD
:1011900000140050002A01D0816170478162FCE791
:1011A000426913000B401B0491430B43836170475A
:1011B0007047704710B50400094BDB68184204D132
:1011C000074B1B69234205D110BD054BD860FFF7C3
:1011D000EFFFF5E7024B1C612000FFF7EAFFF3E7A2
:1011E00000180240026893699B0701D500239362AF
:1011F00003689A69D20703D49A6901210A439A6164
:101200007047000010B58905890D12041143194378
:10121000029B194349004908046862685B0D8020FD
:10122000C0000340034803439A4313000B43636029
:1012300010BDC046FF63FF03F0B5C64600B504000D
:101240000D00170001688B69102216001E401A421B
:1012500000D175E01023CB6100239846002620685A
:1012600083699B0631D4002E2FD16B1CF7D0FFF77A
:1012700033FBC01BA84201D8002DF0D121684B6878
:101280008022D20113404222A25CD2B288690004BB
:1012900003D5002B01D1202A0ED123689B699B0620
:1012A000DDD4FFF719FBC01B1928F6D920234246CD
:1012B0001A4390460126D2E74A688023DB01134394
:1012C0004B60FFF709FB0700E7E7002E01D1202361
:1012D000C3610426434633431E00012522689369F7
:1012E000D90504D501210E43FF31D16101255A05ED
:1012F00006D50822164322688021C900D161012544
:101300009B051FD502231E43236880229200DA61C9
:1013100001252000FFF766FF226853680B490B4048
:101320005360636C3343636441232022E2540023FF
:101330002232A354023AA354280080BCB846F0BD20
:101340000025CBE7002DF7D0E3E7C04600E800FE1C
:1013500070B504000D00160023689B699B0720D41C
:10136000320029002000FFF767FF00281BD16B1C0B
:10137000F2D0FFF7B1FA801BA84201D8002DEBD1C3
:1013800023689B699B07E7D4636C20221343636443
:101390004123E25400232232A354023AA3540120F1
:1013A00000E0002070BD0120FCE7F0B5CE4600B59E
:1013B00082B007000D00160099463B689C692C40DE
:1013C000641B63425C410196B44221D14B46013318
:1013D000F3D0FFF781FA089BC01A484502D84B4664
:1013E000002BEAD13B689B692B405B1B5A4253415F
:1013F000019A9342E1D17B6C202213437B64412309
:10140000FA5400232232BB54023ABB54012000E0BC
:10141000002002B080BCB946F0BD70B504000D00DC
:10142000160003E023689B699B0612D523689B691D
:101430009B061BD4320029002000FFF7FDFE002888
:1014400016D1FFF749FA801BA842EBD8002DEDD149
:10145000E8E7636C2022134363644123E2540023D2
:101460002232A354023AA354012000E0002070BDB0
:101470000120FCE710B5041E60D04123C35C002BA3
:1014800048D041232422E2542268136801218B436F
:101490001360636822682A490B40136122689368CD
:1014A00028490B409360E368012B39D0A16822687A
:1014B00084231B020B439360E368022B37D022681E
:1014C000536821490B405360226851681F4B0B43FE
:1014D00053602268D3681B490B40D360236962695B
:1014E0001343A269120221681343CB60E369216AA6
:1014F00022680B4313602268136801210B431360B9
:101500000023636441221F31A15423630132A35499
:10151000002010BD40330022C254FFF725F9B0E788
:10152000A168226880231B020B439360C4E72268F2
:10153000516880231B010B435360C5E70120E8E796
:10154000FFFFFFF0FF7FFFFFFFF7FFFF00800002BC
:10155000F0B585B004000E00029203930A9D41236A
:10156000C35C202B00D0AEE02033C35C012B00D144
:10157000ACE040230122C254FFF7AEF907008021FE
:1015800000901923012209022000FFF70EFF002816
:1015900000D09DE041232122E2540133113AE2546C
:1015A00000236364029A6262039A62856363638DB7
:1015B0009BB2FF2B1ED9FF23238580235B04228D42
:1015C000002A1CD02268029909789162626A01326D
:1015D0006262628D013A92B26285228D013A92B2C4
:1015E00022850132D2B23E49009131002000FFF73E
:1015F00009FE18E0638D238580239B04DFE7D2B2C8
:101600003749009131002000FFF7FCFD0BE0628DAF
:1016100092B222858023D2B2002100919B04310036
:101620002000FFF7EFFD638D9BB2002B34D03A0012
:1016300029002000FFF78CFE00284BD1626A236846
:1016400012789A62636A01336362638D013B9BB2D5
:101650006385238D013B9BB22385628D92B2002A64
:10166000E1D0002BDFD100972B0000228021200049
:10167000FFF79BFE00282FD1638D9BB2FF2BC6D9AD
:10168000FF2323857F3B002200925B04FF32310061
:101690002000FFF7B7FDC6E73A0029002000FFF75A
:1016A000BCFE00281AD123682022DA6121684B6829
:1016B0000C4D2B404B604123E25400232232A354B3
:1016C000023AA35400E0022005B0F0BD0220FBE77F
:1016D0000120F9E70120F7E70120F5E70120F3E712
:1016E0000020008000E800FEF0B5CE46474680B5F9
:1016F00085B00600894690461D00002303934133C0
:10170000C35C202B00D0A5E003689B691B0400D5B7
:10171000A2E04023C35C012B00D19FE040230122C3
:10172000C25401332332C25400234364F368012BB3
:1017300017D04B469A05920D4C4B134332685360B9
:10174000FFF7CAF807003268916920230B40591E41
:101750008B41DBB2926910241440621E9441E4B2C2
:1017600012E04B469A05920D414B1343E6E732686F
:10177000916920230B40591E8B41DBB292691024E2
:101780001440621E9441E4B21C4317D16B1CEED08E
:10179000FFF7A2F8C01BA84201D8002DE7D12022F4
:1017A0004123F254736C1343736440230022F254B8
:1017B000012005B0C0BCB946B046F0BD33689B6996
:1017C000DB0622D500972B00002220213000FFF7F6
:1017D000ECFD002846D133681022DA6133681032FC
:1017E000DA61039B434522D0039B01330393039BA0
:1017F00043459BD320224123F254736C13437364FB
:1018000040230022F2540120D3E700972B0000224E
:1018100020213000FFF7C9FD002821D132682023A4
:10182000D3614122B35420330022F254C1E732681D
:1018300051688023DB010B43536000972B0000228B
:1018400020213000FFF7B1FD00280DD133682022A0
:10185000DA61C9E70220ACE70220AAE70220A8E784
:101860000120A6E70120A4E70120A2E7002800024A
:1018700000200002F0B54123C35C202B20D120338F
:10188000C35C012B1ED04024012202554125242394
:1018900043550668336893433360066833680A4FDC
:1018A0003B403360066833680B43336001680B6864
:1018B00013430B6020234355002303550020F0BD44
:1018C0000220FCE70220FAE7FFEFFFFFF0B541231B
:1018D000C35C202B1ED12033C35C012B1CD04024C1
:1018E000012202554125242343550668336893435A
:1018F000336006683368094F3B4009021943316081
:1019000001680B6813430B602023435500230355E4
:101910000020F0BD0220FCE70220FAE7FFF0FFFF05
:1019200030B5EFF31084012282F3108801680B6850
:10193000124D2B400B6084F31088EFF3108182F37B
:101940001088026893680E4C2340936081F31088DE
:10195000C36E012B06D08C232022C2500023C36605
:10196000436730BDEFF3108183F31088026813687A
:101970001024A343136081F31088ECE7DFFEFFFF20
:10198000FEFFFFEF10B5040083680269134342694C
:101990001343C269134301680A6862480240134353
:1019A0000B602268536860490B40E1680B43536049
:1019B000A369226A1A4321688B685C480340134379
:1019C0008B602268D36A0F218B43616A0B43D36219
:1019D0002368574A93421BD0564A934229D010237A
:1019E000E0698022120290422DD0042B00D192E0B7
:1019F00067D8002B00D188E0022B60D14E4B1B68CA
:101A00005B090721194001314C48FEF78FFB5CE070
:101A1000494B5A6D03231340022B0CD005D8002BE1
:101A20000BD0012B0BD10333DAE7032B09D105339C
:101A3000D6E70023D4E70223D2E70023D0E7102320
:101A4000CEE71023CCE7042B36D00FD8002B2DD0B7
:101A5000022B09D1384B1B685B0907211940013162
:101A60003648FEF763FB03E0012045E0082B1BD15D
:101A7000626A334B5200D15AFEF758FB400061684E
:101A80004B08C018FEF752FB0200103A2D4B9A4249
:101A900044D882B20F239A434008083B03401343C3
:101AA0002268D360002027E0012025E0FFF7E6F957
:101AB0000028DDD100201FE0FFF7E4F8F8E701205F
:101AC0001AE0082B17D180200002626A1C4B5200DA
:101AD000D15AFEF72BFB61684B08C018FEF726FBB6
:101AE0000200103A174B9A421AD823680004000CDF
:101AF000D860002000E0012001236A22A352023AAC
:101B0000A35200236367A36710BDFFF7B7F900284E
:101B1000DBD10020F0E7FFF7B5F8F8E70120EBE7AD
:101B20000120E9E7F369FFCFFFCFFFFFFFF4FF11CB
:101B3000003801400044004000100240006CDC020C
:101B4000202C0008EFFF0000836A1B0706D50268FF
:101B500053682C490B40816B0B435360836ADB074E
:101B600006D50268536828490B40C16A0B4353608D
:101B7000836A9B0706D50268536824490B40016BB2
:101B80000B435360836A5B0706D50268536820499C
:101B90000B40416B0B435360836ADB0606D502683A
:101BA00093681C490B40C16B0B439360836A9B068F
:101BB00006D50268936818490B40016C0B4393608B
:101BC000836A5B060BD50268536814490B40416C6D
:101BD0000B435360426C80235B039A420AD0836AB2
:101BE0001B0606D5026853680D490B40C16C0B43B8
:101BF00053607047026853680A490B40816C0B437D
:101C00005360ECE7FF7FFFFFFFFFFDFFFFFFFEFFDD
:101C1000FFFFFBFFFFEFFFFFFFDFFFFFFFFFEFFF18
:101C2000FFFFF7FFFFFF9FFFF8B5CE46474680B5A1
:101C300006000D0017009946089B98463368DC693A
:101C40002C40641B63425C41BC422FD143460133AC
:101C5000F4D0FEF741FE4B46C01A40452BD8434610
:101C6000002B2AD033681A685207E7D5DA691207C1
:101C700010D4DA691205E1D5802212011A6230000F
:101C8000FFF74EFE90232022F2500C3B0022F2542C
:101C900003200CE008241C623000FFF741FE902373
:101CA000F4500C3B0022F254012000E00020C0BCA4
:101CB000B946B046F8BD0320F9E70320F7E7F0B5D1
:101CC000C64600B582B004000D0090461E00882371
:101CD000C358202B66D1002969D0002A69D08268B8
:101CE00080235B019A4204D10369002B01D1CB0709
:101CF00061D490230022E250083B2132E250FEF7EB
:101D0000EBFD070054234246E2520233E252A2683E
:101D100080235B019A4202D00023984618E0236991
:101D2000002B2AD00023984612E088232022E2507C
:101D3000032038E043461B882268DB05DB0D9362F5
:101D400002239C46E0445623E25A013A92B2E25200
:101D50005623E35A9BB2002B12D000963B00002280
:101D600080212000FFF760FF0028DED1002DE1D0A8
:101D70002A7823689A620135E5E7A8460025E7E757
:101D800000963B00002240212000FFF74DFF002875
:101D900003D188232022E25005E088232022E2504C
:101DA000032000E0022002B080BCB846F0BD012054
:101DB000F9E70120F7E70120F5E7000030B583B02F
:101DC000040090230022C250FEF786FD0500236820
:101DD0001B681B0710D423681B685B072BD42023C8
:101DE0008822A3500432A3500023E3662367083AF5
:101DF000A354002003B030BD8021234B0093030087
:101E0000002289032000FFF70FFF0028E3D0EFF343
:101E10001081012383F31088226813688020834394
:101E2000136081F3108888232022E250043B0022B3
:101E3000E2547D38DEE78021134B00932B00002213
:101E4000C9032000FFF7F0FE0028C8D0EFF3108090
:101E5000012282F3108821680B680C4D2B400B6027
:101E600080F31088EFF3108082F3108821688B686C
:101E700093438B6080F310888C231F32E250083B21
:101E80000022E2540320B5E7FFFFFF01DFFEFFFF62
:101E900010B5041E30D08823C358002B22D08823CD
:101EA0002422E2502268136801218B431360A36A45
:101EB000002B1DD12000FFF765FD012811D02268FD
:101EC00053680E490B405360226893682A218B4364
:101ED00093602268136829390B4313602000FFF7D1
:101EE0006DFF10BD84330022C254FEF781FCD6E79B
:101EF0002000FFF729FEDDE70120F2E7FFB7FFFF33
:101F0000024B802212059A607047C04600ED00E047
:101F100030B597B010AC214B220023CB23C203CBAA
:101F200003C21B8813802000FEF7EEF8012382B263
:101F30001B485B422100FFF7C2FE002408E001239A
:101F4000184917485B420122FFF7B9FE0134A4B2D9
:101F50007F2C19D8610089B213480A230122FFF7A8
:101F6000C3FB0028EBD1114A23004021684600F052
:101F700029F96846FEF7C8F8012382B208485B4297
:101F80006946FFF79CFEE1E70123094904485B42EB
:101F90000222FFF794FE17B030BDC046A82C0008FF
:101FA0007C000020A02C000810010020982C0008C4
:101FB000A42C000870B584B005000C0016000123A5
:101FC00015485B4201222900FFF78EFB0028F6D15D
:101FD0000F2322009A4313002401E4B2334303AADF
:101FE0000C21180008431070082003435370344339
:101FF000214391700443D470074801235B4200934E
:1020000005332900FFF7A4FA04000520FEF76AFC57
:10201000200004B070BDC0461001002010B50100C2
:10202000034B1B685B00D8B20022FFF7C3FF10BD53
:102030000000002010B50100034B1B685B00D8B204
:102040000122FFF7B7FF10BD0000002010B53020BF
:10205000FFF7E4FF0220FFF7E1FF0C20FFF7DEFFB0
:102060000120FFF7DBFF10BD10B5040002E0FFF711
:10207000E1FF013420780028F9D110BD10B5012806
:1020800006D0802040420843C0B2FFF7C7FF10BD12
:102090004031C9B2F5E710B50120FFF7BFFF0220BC
:1020A000FEF720FC10BD0000F0B5DE4657464E4658
:1020B0004546E0B587B00700884693469A462B4AC6
:1020C0000300142101A800F07DF83800FEF71CF889
:1020D000461CFEF701FC8146002518E0701B001924
:1020E0003100FEF793F97A5C01AB1A5501340F2CDD
:1020F000F4DD01AC0023237400210020FFF7BEFFB4
:102100002000FFF7B1FF5846FEF7ECFB0135FEF764
:10211000E3FB4B46C01A824521D931002800FEF767
:1021200075F90D00FFF7B7FF4346522B07D0722B0E
:1021300007D04C2B07D06C2BDBD1002404E000240B
:10214000D5E70024D3E700240F2CD2DC601931003E
:10215000FEF75CF97A5C01AB1A550134F4E707B07D
:10216000F0BCBB46B246A946A046F0BDC02C000854
:102170000D488546002103E00C4B5B584350043169
:102180000B480C4B42189A42F6D30B4A02E000234C
:1021900013600432094B9A42F9D3FFF7B1FE00F005
:1021A0004DF8FEF703FAFEE700300020042D00088A
:1021B000000000206000002060000020B402002029
:1021C000FEE700000CB430B5174B0C001D689DB045
:1021D000002908DA8B2301202B6040421DB030BC5F
:1021E00008BC02B0184782236A469B0093820023F2
:1021F00002900690994200D04B1E0493079301234E
:102200006A465B42D382280021AB209A02A901933F
:1022100000F096F9431C01DA8B232B60002CDDD0F3
:102220000022029B1A70D9E71000002003008218D8
:10223000934200D1704719700133F9E770B5002659
:102240000C4C0D4D641BA410A64209D1002600F0D1
:1022500075FC0A4C0A4D641BA410A64205D170BD42
:10226000B300EB5898470136EEE7B300EB589847B8
:102270000136F2E7FC2C0008FC2C0008002D0008B9
:10228000FC2C00087047704770B505000C1E10D07C
:10229000043C2368002B00DAE418280000F0E0F882
:1022A0001D4A1368002B05D163601460280000F0FC
:1022B000DFF870BDA34208D9206821188B42F3D102
:1022C00019685B6809182160EEE71A005B68002B4B
:1022D00001D0A342F9D911685018A0420BD120684F
:1022E0000918501811608342E0D118685B684118E2
:1022F00011605360DAE7A04202D90C232B60D5E7C6
:10230000206821188B4203D119685B680918216085
:1023100063605460CAE7C046AC02002070B50F4E3F
:102320000D0031680400002902D100F099FB3060F3
:102330002900200000F094FB431C03D101256D42CD
:10234000280070BD0323C51C9D43A842F8D0291A5C
:10235000200000F085FB0130F2D1EFE7A802002059
:10236000F7B50322CB1C9343083305001F000C2B49
:1023700034D20C27B94233D8280000F071F8374E18
:1023800033681C00002C2FD139002800FFF7C6FF4E
:102390000400431C5FD134680094009B002B4AD199
:1023A000002C52D023682800E3180099019300F014
:1023B00057FB019B834248D123682800FF1A39004C
:1023C000FFF7ACFF013040D02368DB19236033688E
:1023D0005A68002A33D1009B336019E0002BC9DA18
:1023E0000C232B600020FEBD2168C91B20D40B29C3
:1023F0000AD9E2192760A34204D1326063681160F0
:10240000536005E05A60F9E76268A3420ED132607A
:10241000280000F02DF8200007220B30231D9043E8
:10242000C21A9842DFD01B1AA350DCE75A60EFE7CC
:1024300023006468A6E7009C63680093ADE71A0078
:102440005B68A342FBD10023DAE70C2328002B6052
:1024500000F00EF8C6E70760DAE7C046AC020020DD
:1024600010B50248FFF70EFF10BDC046A4020020C1
:1024700010B50248FFF707FF10BDC046A4020020B8
:10248000F0B58E6885B01F000C000B6802900392B7
:10249000BE4230D80C21625E9021C9000A4228D089
:1024A000032021695B1A0193636943430198DD0F9F
:1024B000ED187B1C1B186D10AB4200D91D00520596
:1024C00028D529000298FFF74BFF061E2CD0019A51
:1024D000216900F0E2FAA289184B1A4080231343C5
:1024E000A381019B2661F61826603E006561ED1A06
:1024F000A560BE4200D93E0032000399206800F07A
:102500009BFA0020A3689B1BA36023689B19236090
:1025100005B0F0BD2A00029800F0C8FA061EE0D10E
:1025200021690298FFF7B0FE0C230120029A404275
:102530001360A28934331343A381E9E77FFBFFFFD4
:10254000F0B5A1B003901D008B890F0016001B068B
:1025500011D50B69002B0ED14021FFF701FF386028
:102560003861002805D10C23039A136001204042F2
:10257000CFE040237B61002308AC636120336376A6
:102580001033A376079535002B78002B01D0252B2F
:1025900048D1AB1B0593B5420BD0320039000398EC
:1025A000FFF76EFF013000D1AEE06369059A9B181A
:1025B00063612B78002B00D1A6E001220023524258
:1025C000626004A9543252186E1C2360E360A36059
:1025D0001370A365544B052218003178059300F061
:1025E00051FA751C00281FD12268D30604D5532345
:1025F00004A95B1820211970130704D5532304A9DB
:102600005B182B21197033782A2B16D03500002146
:102610000A20E3682A786E1C303A092A50D900292A
:1026200011D117E00135AFE7059B2268C01A0123DD
:10263000834013432E002360CCE7079B191D1B68C2
:102640000791002B01DB0B9304E05B42E360022364
:10265000134323602B782E2B0CD16B782A2B34D18B
:10266000079B02351A1D1B680792002B01DA012314
:102670005B4209932D4E03223000297800F002FAC4
:10268000002806D04023801B834022680135134375
:1026900023602978062226486E1C217600F0F2F984
:1026A000002838D0234B002B22D10722079B073369
:1026B0009343083307936369049A9B18636162E745
:1026C0004343350001219B18A4E700230A20190089
:1026D000013563602A786E1C303A092A03D9002B31
:1026E000C8D00991C6E74143350001238918F1E7B5
:1026F00007AA009221003A000F4B039800E000BFA8
:102700000490049B0133D6D1BB890D985B0600D59C
:102710002CE721B0F0BD07AA009221003A00064B39
:10272000039800F07BF8EBE7C72C0008CD2C0008DD
:10273000D12C00080000000081240008F7B5160025
:1027400001938A680B690C000090934200DA130031
:102750002200336043321278002A01D00133336003
:1027600023689B0602D53368023333602268062350
:1027700015001D401A4227D0230043331B785A1EF0
:1027800093412268920630D4220001990098089D56
:102790004332A847013025D0062223680025134084
:1027A000042B05D13368E568ED1AEB43DB171D40B8
:1027B000A3682269934201DD9B1AED180026B542F9
:1027C00020D1002010E00135E36832689B1AAB424B
:1027D000D2DD2200012301990098089F1932B847E1
:1027E0000130F0D101204042FEBD3020E1184331DC
:1027F000087021005A1C45310978A218433202336F
:102800001170C1E72200012301990098089F1A3234
:10281000B8470130E6D00136D1E70000F0B58BB003
:1028200006920A0043320793059003920A7E0C0039
:10283000109B782A09D8622A0BD8002A00D1BCE064
:102840007B490491582A00D190E0250042352A7036
:1028500022E0100063381528F7D8FDF75DFC16005C
:102860001F00F6FFF6FFF6FFF6FF1F00F6FFF6FF6C
:10287000F6FFF6FFA10036008000F6FFF6FFB2007B
:10288000F6FF3600F6FFF6FF840025001A68423591
:10289000111D196013682B700123A0E018680968E6
:1028A000021D0D060BD506681A60002E03DA2D23D3
:1028B000039A764213705E4B0A27049318E0066869
:1028C0001A604906F1D536B2EFE70868196840C9C1
:1028D000050602D4400600D5B6B21960544B0A274B
:1028E00004936F2A00D1023F2300002243331A7061
:1028F0006368A360002B03DB042122688A43226003
:10290000002E02D1039D002B0CD0039D3000390016
:10291000FDF792FC049B013D5B5C2B7033000600CD
:102920009F42F3D9082F09D12368DB0706D56268D7
:1029300023699A4202DC3023013D2B70039B5B1B11
:102940002361079B210000930598069B09AAFFF7C6
:10295000F5FE013048D1012040420BB0F0BD2022ED
:1029600009680A43226078223249049121004531E6
:102970000A701968226840C9100602D4500600D5B2
:10298000B6B21960D30702D5202313432360002E6B
:1029900001D01027A8E72022236893432360F8E79B
:1029A0001A680D68101D4969186013682E0601D554
:1029B000196002E06D06FBD519800023039D236199
:1029C000BFE71A68111D19601568002128006268A8
:1029D00000F058F8002801D0401B60606368236154
:1029E0000023039A1370ACE72A002369069905981F
:1029F000079DA8470130AED023689B0715D4099BDB
:102A0000E0689842A9DA1800A7E722000123069996
:102A10000598079E1932B04701309CD00135E36814
:102A2000099A9B1AAB42F0DCE9E70025F7E7C046BC
:102A3000D82C0008E92C000810B5884206D80023DD
:102A40009A4208D0CC5CC4540133F9E78B18984201
:102A5000F5D2013A00D210BD8B5C8354F9E7000037
:102A6000002370B5064D040008002B6000F056F8F6
:102A7000431C03D12B68002B00D0236070BDC046DF
:102A8000A0020020C9B28218904201D100207047F4
:102A900003788B42FBD00130F6E7002310B59A4251
:102AA00000D110BDCC5CC4540133F8E7F7B5060083
:102AB0000C001500002905D11100FFF751FC04009E
:102AC0002000FEBD002A03D1FFF7DEFB0024F7E75C
:102AD00000F01BF80700854202D84308AB42EFD351
:102AE00029003000FFF73CFC01900028EED02A00BE
:102AF000BD4200D93A0021000198FFF7CEFF210026
:102B00003000FFF7C1FB019CDAE70B1F1B68181FA1
:102B1000002B01DA0B58C01870470000054A03006B
:102B20001168002901D1044911601068C3181360AD
:102B30007047C046B0020020B8020020F8B5C04679
:102B4000F8BC08BC9E467047F8B5C046F8BC08BC47
:042B50009E467047E6
:102B54005573696E672031363032204C434431005E
:102B640020206F766572204932432062757300001D
:102B74004C43443120616464723078323700000081
:102B84007368696674696E67207468652074657813
:102B94007420746F20746865207269676874206497
:102BA4006972656374696F6E20666F7220313020BC
:102BB4007365636F6E6473005573696E6720313695
:102BC4003032204C434432004C434431206164642D
:102BD40072203078323200007368696674696E67F7
:102BE40020746865207465787420746F2074686537
:102BF400206C65667420646972656374696F6E2005
:102C0400666F72203130207365636F6E64730000E9
:102C140048656C6C6F210D0A000000000100020081
:102C24000400060008000A000C0010002000400008
:102C3400800000010000000000000000000000000F
:102C4400000000000100000002000000030000007A
:102C5400040000000000000000000000000000006C
:102C64000000000000000000000000000000000060
:102C7400000000000100000002000000030000004A
:102C84000400000006000000070000000800000027
:102C94000900000030782530325800002E00000072
:102CA4000D0A00005363616E6E696E6720493243FA
:102CB400206275732E2E2E0D0A000000202025732D
:102CC400202000232D302B2000686C4C00656667A3
:102CD400454647003031323334353637383941428E
:102CE4004344454600303132333435363738396160
:082CF4006263646566000000E4
:042CFC00E9000008E3
:042D0000C100000806
:102D0400270000000100000004000000006CDC0249
:102D1400140000200000000068010020D001002001
:102D24003802002000000000000000000000000045
:102D3400000000000000000000000000000000008F
:102D4400000000000000000000000000000000007F
:102D5400000000000000000000000000000000006F
:04000005080021715D
:00000001FF
