:020000040800F2
:1000000000280020DD030008150300081B0300087A
:1000100021030008270300082D030008000000004A
:100020000000000000000000000000003303000892
:100030003F030008000000004B03000857030008BE
:1000400025040008250400082504000825040008EC
:1000500025040008250400082504000825040008DC
:1000600025040008250400082504000825040008CC
:1000700025040008250400082504000825040008BC
:1000800025040008250400082504000825040008AC
:10009000250400082504000825040008250400089C
:1000A000250400082504000825040008250400088C
:1000B00025040008250400080000000025040008AD
:1000C00025040008000000000000000025040008CE
:1000D00000000000250400082504000800000000BE
:1000E000250400082504000825040008000000007D
:1000F0000000000000000000000000000000000000
:0C01000000000000000000005FF808F1A3
:10010C0010B5054C237833B9044B13B10448AFF345
:10011C0000800123237010BD680000200000000047
:10012C00F00D000808B5034B1BB103490348AFF3AE
:10013C00008008BD000000006C000020F00D0008DD
:10014C0080B400AF0E4BDB690D4A43F00103D36161
:10015C004FF0804300229A624FF08043094ADA62E2
:10016C004FF0804300225A624FF080431B684FF0DF
:10017C00804243F00103136000BFBD4680BC704752
:10018C000010024000093D0080B400AF074B9B6992
:10019C00064A43F004039361044B9B69034A43F4FE
:1001AC008053936100BFBD4680BC70470010024075
:1001BC0080B400AF094B1B68084A23F0885323F422
:1001CC0080131360054B1B68044A43F0244343F42B
:1001DC002103136000BFBD4680BC7047000801407E
:1001EC0080B400AF0E4B1B680D4A23F4264323F05A
:1001FC00B80313600A4B1B68094A43F02F031360C2
:10020C00074B5B68064A23F0E3035360044B1B68FF
:10021C00034A43F04003136000BFBD4680BC7047E7
:10022C000030014080B485B000AF0346FB71002361
:10023C00FB730323BB73194BDB68184A23F01003C1
:10024C00D360174BDB6803F47F42FB7914491343EB
:10025C00CB60134BDB68DBB2BA7B12021146104A3F
:10026C000B43D36000BF0E4B9B6803F08003002B45
:10027C00F9D10B4B9B6803F00103002BF3D0084B17
:10028C00DB68FB73074BDB68064A43F00203D36061
:10029C00FB7B18461437BD4680BC704700080140F4
:1002AC0000300140000C014080B500AFFFF76CFF3F
:1002BC00FFF77EFF044BDB68034A43F00103D36076
:1002CC00FFF78EFF00BF80BD000C014080B588B0E9
:1002DC0000AFBB23FB770023BB77FFF731FFFFF7A2
:1002EC00E3FFFB7F1846FFF79DFF0346BB77BA7F02
:1002FC003B460449184600F0FBF8642000F0AAF8CD
:10030C00EFE700BF080E000880B400AFFEE780B432
:10031C0000AFFEE780B400AFFEE780B400AFFEE7AD
:10032C0080B400AFFEE780B400AF00BFBD4680BC18
:10033C00704780B400AF00BFBD4680BC704780B42E
:10034C0000AF00BFBD4680BC704780B500AF00F069
:10035C0065F800BF80BD000080B586B000AF786046
:10036C00144A154BD31A7B617B693B61134B1B6899
:10037C00002B02D1114B124A1A60104B1A687B6881
:10038C0013443A699A4207D200F088F803460C22CB
:10039C001A604FF0FF3309E0084B1B68FB60074BFA
:1003AC001A687B681344054A1360FB6818461837B3
:1003BC00BD4680BD00280020000400008400002001
:1003CC00A000002080B400AF00BFBD4680BC7047C9
:1003DC00FFF7F8FF0B480C490C4A002302E0D458F5
:1003EC00C4500433C4188C42F9D3094A094C002375
:1003FC0001E013600432A242FBD300F055F8FFF782
:10040C0065FF70470000002068000020540E0008B3
:10041C00680000209C000020FEE7000080B400AFC4
:10042C00054B1B781A46054B1B681344034A136093
:10043C0000BFBD4680BC7047000000208800002033
:10044C0080B400AF024B1B681846BD4680BC704799
:10045C008800002080B584B000AF7860FFF7F0FF13
:10046C00B8607B68FB60FB68B3F1FF3F05D00A4BBB
:10047C001B781A46FB681344FB6000BFFFF7E0FFD4
:10048C000246BB68D31AFA689A42F7D800BF00BF7D
:10049C001037BD4680BD00BF00000020014B18681E
:1004AC00704700BF0400002070B500260C4D0D4CA9
:1004BC00641BA410A64209D100F094FC00260A4D3E
:1004CC000A4C641BA410A64205D170BD55F8043B20
:1004DC0098470136EEE755F8043B98470136F2E7AA
:1004EC004C0E00084C0E00084C0E0008500E000874
:1004FC000EB46FF0004100B59CB01DAB029006909D
:10050C00079104910848094953F8042B0591006898
:10051C0002A9019300F068F80022029B1A701CB02B
:10052C005DF804EB03B07047040000200802FFFFE5
:10053C002DE9F0478E6882469E420C4690461F4637
:10054C0038D88A8912F4906F32D025680969013342
:10055C00A5EB010965694B4405EB450505EBD57524
:10056C006D109D4238BF1D46530531D5294600F00C
:10057C006FFB064650B90C234FF0FF30CAF8003021
:10058C00A38943F04003A381BDE8F0874A46216963
:10059C0000F0CEFAA38923F4906343F08003A38187
:1005AC0026614E4426603E466561A5EB0905A560B3
:1005BC00BE4200D93E4632464146206800F0C6FA9B
:1005CC00A36800209B1BA360236833442360DBE7F4
:1005DC002A4600F0B1FB06460028E1D150462169BD
:1005EC0000F0CEFAC7E700002DE9F04F98468B8952
:1005FC0007461B060D4614469DB00ED50B6963B914
:10060C00402100F025FB2860286120B90C233B60B9
:10061C004FF0FF30D1E040236B610023099320237E
:10062C008DF8293030234FF00109CDF80C80DFF81C
:10063C00A4818DF82A3023469A4613F8012B0AB16F
:10064C00252AF9D1BAEB040B0BD05B46224629467E
:10065C003846FFF76DFF013000F0AA80099A5A4422
:10066C0009929AF80030002B00F0A28000234FF082
:10067C00FF32CDE905230AF1010A049307938DF8A3
:10068C0053301A935446052214F8011B514800F0BC
:10069C0041FA049AD8B9D00644BF20238DF85330C0
:1006AC00110744BF2B238DF853309AF800302A2BB6
:1006BC0015D0544600204FF00A0C079A214611F829
:1006CC00013B303B092B4ED9B0B1079214E0A0EBA3
:1006DC00080309FA03F31343A2460493D2E7039BDE
:1006EC00191D1B680391002BBBBF5B4242F0020239
:1006FC0007930793B8BF049223782E2B0CD1637801
:10070C002A2B35D1039B02341A1D1B680392002B34
:10071C00B8BF4FF0FF330593DFF8BCA0032250465F
:10072C00217800F0F7F940B14023A0EB0A0003FA5E
:10073C0000F0049B01340343049314F8011B0622BC
:10074C0026488DF8281000F0E5F9002838D0244B05
:10075C001BBB039B073323F0070308330393099B4D
:10076C003344099367E70C4601200CFB0232A5E7E2
:10077C0000234FF00A0C194601340593204610F85B
:10078C00012B303A092A03D9002BC5D00591C3E7B8
:10079C00044601230CFB0121F0E703AB00932A462E
:1007AC003846104B04A9AFF30080421C0646D6D144
:1007BC00AB895B063FF52CAF09981DB0BDE8F08FF7
:1007CC0003AB00932A463846064B04A900F07CF88C
:1007DC00EBE700BF190E00081F0E0008230E0008DF
:1007EC00000000003D0500082DE9F047164699462B
:1007FC008A680B6907469342B8BF1346336091F879
:10080C0043200C46DDF820800AB1013333602368A5
:10081C00990642BF336802333360256815F006052C
:10082C0006D104F1190AE36832689B1AAB4228DC42
:10083C0094F84320131E226818BF012392062DD46E
:10084C004946384604F14302C047013020D02368A2
:10085C00E56803F00603042B18BF002532684FF03F
:10086C000006A36808BFAD1A226908BF25EAE57522
:10087C009342C4BF9B1AED181A34B5421AD100200A
:10088C0008E00123524649463846C047013003D19F
:10089C004FF0FF30BDE8F0870135C4E73020E11898
:1008AC0081F843005A1C94F845102244023382F814
:1008BC004310C5E70123224649463846C04701305C
:1008CC00E6D00136D9E700002DE9FF470F7E9146AF
:1008DC00782F80460C469A460C9D01F1430207D8AE
:1008EC00622F0AD8002F00F0D980582F00F0A48076
:1008FC0004F1420584F842703AE0A7F16303152B2A
:10090C00F6D801A151F823F06D09000881090008FF
:10091C00FD080008FD080008FD080008FD08000897
:10092C0081090008FD080008FD080008FD08000802
:10093C00FD0800088F0A0008B1090008710A0008B8
:10094C00FD080008FD080008B10A0008FD080008B1
:10095C00B1090008FD080008FD080008790A000824
:10096C002B681A1D1B682A6004F1420584F842307A
:10097C000123A4E020682968060601F104030AD5C6
:10098C000E682B60002E03DA2D23764284F8433058
:10099C000A235E4819E00E6810F0400F2B6018BF58
:1009AC0036B2EFE72B682068191D2960010601D5C6
:1009BC001E6802E04606FBD51E886F2F0CBF08236D
:1009CC000A235248002184F843106568002DA8BF03
:1009DC002168A560A4BF21F0040121600EB9002D8F
:1009EC004DD01546B6FBF3F103FB1167C75D05F857
:1009FC00017D3746BB420E46F4D9082B0BD1236838
:100A0C00DE0708D5236961689942DEBF302305F8FB
:100A1C00013C05F1FF35521B22614B4621464046F5
:100A2C00CDF800A003AAFFF7DFFE01304CD14FF048
:100A3C00FF3004B0BDE8F087344881F84570296870
:100A4C00236851F8046B29601D0614D5DF0744BFD9
:100A5C0043F0200323601EB9236823F02003236096
:100A6C001023AFE7236843F0200323607823284842
:100A7C0084F84530E3E7590648BFB6B2E6E71546B9
:100A8C00BBE72B682668181D6169286035061B6852
:100A9C0001D5196002E07006FBD5198000231546BC
:100AAC002361BAE72B6800211A1D2A601D68626851
:100ABC00284600F02FF808B1401B60606368236182
:100ACC00002384F84330A8E72A4649464046236968
:100ADC00D0470130ABD023689B0713D4E068039B4D
:100AEC009842B8BF1846A4E701233246494640460F
:100AFC00D04701309BD00135E36803995B1AAB42B8
:100B0C00F2DCEBE7002504F11906F5E72A0E0008E4
:100B1C003B0E0008034610B5C9B202449342184676
:100B2C0001D1002003E0047801338C42F6D110BDD2
:100B3C000A44914200F1FF3300D1704710B511F80F
:100B4C00014B914203F8014FF9D110BD884210B509
:100B5C0001EB020402D98442234607D8431EA1426A
:100B6C0008D011F8012B03F8012FF8E701460244D5
:100B7C008A4200D110BD13F8014D02F8014DF7E780
:100B8C0038B50546002940D051F8043C0C1F002B09
:100B9C00B8BFE41800F010F91C4A136833B963604D
:100BAC0014602846BDE8384000F00CB9A34208D9BF
:100BBC00206821188B4201BF19685B6809182160F5
:100BCC00EDE71A465B680BB1A342FAD911685018CD
:100BDC00A0420BD120680144501883421160E0D12F
:100BEC0018685B68014411605360DAE702D90C2382
:100BFC002B60D6E7206821188B4201BF19685B680F
:100C0C000918216063605460CBE738BD8C0000206C
:100C1C0070B50E4E0C463168054611B900F0BCF8A3
:100C2C0030602146284600F0B7F8431C0AD0C41C9B
:100C3C0024F00304A04207D0211A284600F0ACF897
:100C4C00013001D14FF0FF34204670BD90000020E0
:100C5C002DE9F041CD1C25F0030508350C2D38BFCE
:100C6C000C25002D074601DBA94205D90C230026D3
:100C7C003B603046BDE8F0812E4E00F09DF83368A5
:100C8C001C4634BB29463846FFF7C2FF431C0446BA
:100C9C004DD134682646002E40D123683146384663
:100CAC0004EB030800F078F880453AD1216803354D
:100CBC006D1A25F0030508350C2D38BF0C25384668
:100CCC002946FFF7A5FF01302BD023682B44236066
:100CDC000EE02268521B1ED40B2A16D96119A342AE
:100CEC00256018BF5960636808BF316062514B6062
:100CFC00384604F10B0600F065F826F00706231DB4
:100D0C00F21AB6D09B1BA350B3E76268A3420CBF88
:100D1C0032605A60ECE723466468B2E73446766882
:100D2C00B9E70C2338463B6000F04CF8A1E725608E
:100D3C00DEE700BF8C0000202DE9F0418046144610
:100D4C000E4621B91146BDE8F041FFF781BF2AB923
:100D5C00FFF716FF25462846BDE8F08100F038F86D
:100D6C008442074602D8B4EB500F12D821464046B5
:100D7C00FFF76EFF05460028EDD0BC4222463146F7
:100D8C0028BF3A46FFF7D4FE31464046FFF7F8FE3F
:100D9C00E1E73546DFE7000038B50023054D044692
:100DAC0008462B60FFF7D8FA431C02D12B6803B11D
:100DBC00236038BD94000020014800F011B800BF3A
:100DCC0098000020014800F00CB800BF98000020EB
:100DDC0051F8043C181F002BBCBF0B58C0187047AF
:100DEC0070477047F8B500BFF8BC08BC9E4670470A
:0C0DFC00F8B500BFF8BC08BC9E4670476C
:100E08000A20444154413D202564204865780D0A54
:100E180000232D302B2000686C4C00656667454622
:100E2800470030313233343536373839414243445C
:100E380045460030313233343536373839616263EC
:040E48006465660077
:040E4C003101000868
:040E50000D01000888
:100E54000100000008000020000000000000000065
:100E6400000000000000000000000000000000007E
:100E7400000000000000000000000000000000006E
:100E8400000000000000000000000000000000005E
:100E9400000000000000000000000000000000004E
:100EA400000000000000000000000000000000003E
:080EB400000000000000000036
:04000005080003DD0F
:00000001FF
